:1000000000000420D50100000102000001020000F0
:1000100001020000010200000102000001020000D4
:1000200001020000010200000102000001020000C4
:1000300001020000010200000102000001020000B4
:1000400001020000010200000102000001020000A4
:100050000102000001020000010200000102000094
:100060000102000001020000010200000102000084
:100070000102000001020000010200000102000074
:100080000102000001020000010200000102000064
:100090000102000001020000010200000102000054
:1000A0000102000001020000010200000102000044
:1000B0000102000001020000010200000102000034
:1000C0000102000001020000010200000102000024
:1000D0000102000001020000010200000102000014
:1000E0000102000001020000010200000102000004
:1000F00001020000010200000102000001020000F4
:1001000001020000010200000102000010B5054CD0
:10011000237833B9044B13B10448AFF300800123B3
:10012000237010BD80000020000000009427000014
:1001300008B5064B1BB106480649AFF300800648D8
:10014000036813B1054B03B1984708BD00000000D8
:1001500094270000840000207C00002000000000A4
:10016000154B002B08BF134B9D46A3F5803A002189
:100170008B460F461348144A121A02F0CBFA0F4B63
:10018000002B00D098470E4B002B00D09847002042
:10019000002104000D000D48002802D00C48AFF3E8
:1001A000008002F091FA2000290002F019FA02F012
:1001B00077FA00BF000008000000042000000000E3
:1001C0000000000080000020A800002000000000C7
:1001D00000000000064880470649074A074B9A423C
:1001E000BEBF51F8040B42F8040BF8E7FFF7B8FF65
:1001F000E5020000A0270000000000208000002091
:10020000FEE700BF80B582B000AF00F027F878604D
:100210000A4BD3F808210A4B13401B0A3B603B688A
:1002200001337A68B2FBF3F37B60064B7A681A609D
:100230007B6818460837BD4680BD00BF00400E40B1
:1002400000FF01000800002080B400AF024B1846F8
:10025000BD465DF8047B7047005A620280B483B0EB
:1002600000AF164BD3F8943003F00703032B08D0EC
:10027000042B02D0022B08D00BE0114B1B687B60D3
:100280000BE04FF400437B6007E00E4B1B687B6084
:1002900003E00D4B1B687B6000BF084BD3F80031B7
:1002A00003F4F8531B0A01337A68B2FBF3F31846E0
:1002B0000C37BD465DF8047B704700BF00400E4020
:1002C00004000020000000200C00002080B400AFDB
:1002D000034B1B681846BD465DF8047B704700BFA2
:1002E0000000002080B400AF074B084A9A60064B1C
:1002F000054AD2F8882042F47002C3F88820BD462F
:100300005DF8047B704700BF00ED00E000000000D6
:1003100080B400AF4FF400431846BD465DF8047B3F
:10032000704700BF80B400AF4FF47A731846BD46E3
:100330005DF8047B704700BF80B400AF034B1B68BF
:100340001846BD465DF8047B704700BF04000020DE
:1003500080B487B000AFF860B9607A60FB6803F1E1
:100360000473DA00BB6813449B007B617B697A6885
:100370001A601C37BD465DF8047B704780B485B0B9
:1003800000AF786039607B6803F10473DA003B6882
:1003900013449B00FB60FB681B6818461437BD467E
:1003A0005DF8047B704700BF80B483B000AF786015
:1003B0007B68012202FA03F318460C37BD465DF84C
:1003C000047B704780B500AF00BF04481221FFF7DF
:1003D000D5FF0346002BF8D180BD00BF04300E408E
:1003E00080B500AFFFF7EEFF034B5B6803F44033CB
:1003F0001B0CDBB2184680BD00300E4080B584B0C7
:1004000000AF78600123FB607A68124B9A4204D8EF
:100410000023FB600023BB6008E07A680E4B9A4221
:1004200002D80123BB6001E00223BB600B4810210E
:10043000FA68FFF78DFF094B084AD2F8002122F035
:100440008071BA6812060A43C3F800211037BD460E
:1004500080BD00BF0048E8010090D00300400E407E
:1004600080B483B000AF054B1B687B607B68184687
:100470000C37BD465DF8047B704700BF10000020BC
:1004800080B582B000AFFFF7E9FE7860064BD3F885
:10049000003103F4F8531B0A01337A6802FB03F3BB
:1004A00018460837BD4680BD00400E4080B582B07A
:1004B00000AF0D4800F02CFB0346FB70FB78072BC8
:1004C00005D0092B07D1FFF7C9FE786006E0FFF7DA
:1004D000C7FF786002E000237B6000BF7B6818469E
:1004E0000837BD4680BD00BF06000E0080B584B051
:1004F00000AF78607B68002B1CD11B4800F008FB24
:100500000346FB7200BFFB7A013B072B23D801A2F5
:1005100052F823F039050000570500005705000088
:100520004705000057050000570500003F05000083
:100530004F050000002312E00023FB600EE0FFF7F0
:100540008FFFF8600AE0FFF7C1FEF86006E0FFF7F2
:1005500097FFF86002E00023FB6000BFFB681846CD
:100560001037BD4680BD00BFB800320080B485B0F2
:1005700000AF786039601D4B5B6803F04073FB602F
:100580000023BB6013E01A4ABB68DB0013441A79EE
:100590003B68DBB29A4207D1154BBA6853F8322058
:1005A0007B689A4200D305E0BB680133BB60BB683F
:1005B000042BE8D9BB68052B02D10323FB6005E0BF
:1005C0000B4ABB68DB0013445B79FB60FB681B06CE
:1005D000FB60064B054A526822F04071FA680A43F4
:1005E0005A601437BD465DF8047B704700000E402A
:1005F0004027000080B582B000AF0D4B1B6C002B74
:100600000CBF00230123FB71094B41F671321A64C0
:10061000FFF71AFE034618460021FFF7A7FFFB79F4
:10062000002B02D0024B00221A640837BD4680BD61
:1006300000000E4080B584B000AF786039600C4B8C
:100640001B6C002B0CBF00230123FB73084B41F6EE
:1006500071321A6478683968FFF788FFFB7B002BDA
:1006600002D0034B00221A641037BD4680BD00BF84
:1006700000000E4080B487B000AF78600F237B612C
:100680007B6803333B617B69FB60FA683B699A4294
:1006900038BF1346BB60BB681B07BB60BB6818460E
:1006A0001C37BD465DF8047B704700BF80B400AFC7
:1006B000044B5B6A03F030031B091846BD465DF826
:1006C000047B704700400E4080B483B000AF786078
:1006D000064B064A526A22F030017A6812010A4338
:1006E0005A620C37BD465DF8047B704700400E40EF
:1006F00090B585B000AF78600023BB607B68354A59
:10070000934206D0344A934203D0344A934200D0F5
:1007100000E000BF786800F0FBF90346FB607B68EF
:100720002C4A93420DD02C4A934211D02B4A93422B
:1007300000D014E02A4BD3F8803003F00703FB60AD
:100740000DE0274BD3F8843003F00703FB6006E08D
:10075000234BD3F8883003F00703FB6000BFFB682E
:10076000042B2ED801A252F823F000BFBD070000D1
:100770008107000089070000990700009107000029
:10078000FFF7C6FDB8601FE0FFF7D6FDB8601BE0BD
:10079000FFF7C8FDB86017E0FFF734FD0446104BC3
:1007A000D3F8003103F080731B0E01331846FFF7B6
:1007B000FBFD0346B4FBF3F3BB6005E00023BB6025
:1007C00002E00023BB6000BFBB6818461437BD467B
:1007D00090BD00BF030020000500240002001E00A1
:1007E00000400E4080B483B000AF78600A4BD3F86D
:1007F000443103F00103002B00D007E000BF064B9B
:10080000D3F840217B681340002BF8D10C37BD464C
:100810005DF8047B704700BF00400E4080B400AF1D
:10082000BD465DF8047B704780B400AFBD465DF8FF
:10083000047B704780B586B000AF78600B46FB70D4
:1008400000233B617B681B0A03F00F03013B092B6C
:1008500044D801A252F823F0810800008D0800005E
:10086000DD080000DD080000870800009308000094
:100870009D080000DD080000A7080000B308000084
:10088000184B7B6118E0184B7B6115E0174B7B61BF
:1008900012E0174B7B6101233B610DE0154B7B613F
:1008A00010233B6108E0144B7B614FF480333B61C4
:1008B00002E0124B7B6100BF7B681B0B03F01F0340
:1008C000FB603B69002B02D03869FFF78BFFFB7898
:1008D0007869F9681A46FFF73BFD00E000BF18375A
:1008E000BD4680BD00400E40B0400E40C0400E40AE
:1008F000E0400E40E8400E40F0400E4050410E40B7
:1009000080B584B000AF78607B6803F47813B3F5EA
:10091000A01F7DD0B3F5A01F1AD8B3F5202F50D05B
:10092000B3F5202F08D8B3F5003F4ED0B3F5802F94
:1009300038D0002B32D0D8E0B3F5602F00F0C8805B
:10094000B3F5801F00F0C880B3F5402F4CD0CCE049
:10095000B3F5001F00F08B80B3F5001F0AD8B3F584
:10096000D01F00F08980B3F5F01F4CD0B3F5B01F55
:100970005CD0BAE0B3F5381F6AD0B3F5381F04D89D
:10098000B3F5101F00F09F80AFE0B3F5401F00F0FB
:100990008680B3F5481F00F0A380A6E0FFF75EFC59
:1009A000F860A5E0FFF75AFCF860544BD3F80C212F
:1009B000534B13401B0A0133FA68B2FBF3F3FB609D
:1009C00096E0FFF74BFCF86092E0FFF747FCF86019
:1009D0004A4BD3F808214A4B13401B0A0133FA68EB
:1009E000B2FBF3F3FB6083E0FFF738FCF860434BA6
:1009F000D3F8143103F4F8531B0A0133FA68B2FB3D
:100A0000F3F3FB6074E03F48FFF772FEF8606FE0BD
:100A10003D48FFF76DFEF860384BD3F8303103F0F6
:100A20000303FA6822FA03F3FB6061E03548FFF73D
:100A30005FFEF860314BD3F8203103F00F03184606
:100A4000FFF7B2FC0346FA68B2FBF3F3FB604FE03A
:100A50002C48FFF74DFEF860284BD3F8203103F007
:100A600030031B09FA6822FA03F3FB6040E02748D1
:100A7000FFF73EFEF8603BE02448FFF739FEF860E0
:100A80001E4BD3F8283103F030031B091846FFF73B
:100A90008BFC0346FA68B2FBF3F3FB6028E01B48CB
:100AA000FFF726FEF860154BD3F8283103F44073A6
:100AB0001B0A04331846FFF777FC0346FA68B2FBBB
:100AC000F3F3FB6014E01048FFF712FEF8600FE04C
:100AD000FFF7ECFCF8600BE0FFF7C2FCF86007E002
:100AE0000020FFF703FDF86002E00023FB6000BF79
:100AF000FB6818461037BD4680BD00BF00400E4061
:100B000000FF010002001E00050024000300200079
:100B100080B485B000AF78600123FB737B6803F07D
:100B20000F03BB60BB68013B072B00F2C48001A22E
:100B300052F823F0550B0000AB0B0000DB0B00005C
:100B4000B70C0000210C0000510C0000B70C000095
:100B5000750C00005D4BD3F8943003F00703023BA3
:100B6000052B1ED801A252F823F000BF910B000004
:100B70008B0B0000850B0000970B0000A30B0000FF
:100B80009D0B00000223FB730EE00323FB730BE0BD
:100B90000423FB7308E00B23FB7305E00C23FB73BA
:100BA00002E00523FB7300BF88E0484BD3F8803098
:100BB00003F00703022B06D0042B07D0012B08D12A
:100BC0000323FB7308E00223FB7305E00A23FB7396
:100BD00002E00123FB7300BF70E03C4BD3F884308C
:100BE00003F00703013B032B16D801A252F823F0B0
:100BF000010C0000070C0000130C00000D0C00009D
:100C00000323FB730BE00223FB7308E00A23FB734F
:100C100005E00623FB7302E00123FB7300BF4DE0F8
:100C20002A4BD3F8883003F00703022B06D0042B9D
:100C300007D0012B08D10323FB7308E00223FB73C9
:100C400005E00A23FB7302E00123FB7300BF35E0DC
:100C50001E4B1B6F03F00103002B04D0012B05D1A9
:100C60000923FB7305E00723FB7302E00123FB73F9
:100C700000BF23E0154BD3F85C3103F03003102B99
:100C80000CD0102B02D8002B05D010E0202B08D060
:100C9000302B09D00BE00123FB730BE00723FB7320
:100CA00008E00423FB7305E00823FB7302E0012343
:100CB000FB7300BF02E00023FB7300BFFB7B184601
:100CC0001437BD465DF8047B704700BF00400E40FE
:100CD00080B58AB000AF78600B46FB7003237B625F
:100CE000032387F823300023BB6100237B617B68EB
:100CF000112B19D1FB78042B03D1FFF7E7FA7861A8
:100D00000BE0FB78052B08D100F05AF90246A44B02
:100D10009A4202D900F054F978617B69002B03D024
:100D20007869002100F03EFC7B6803F00F033B6113
:100D30003B69013B072B00F2298101A252F823F005
:100D4000610D0000550E0000670E00008D0F0000C1
:100D5000590E0000FD0E00008D0F00001B0F00005B
:100D6000FB78023B0A2B00F2138101A252F823F018
:100D70009D0D0000A90D0000B50D0000C70D00007D
:100D8000910F0000910F0000910F0000910F0000E3
:100D9000910F0000D90D0000E50D000004237B62D7
:100DA000002387F8233023E003237B62012387F8A5
:100DB00023301DE002237B62022387F82330794829
:100DC000FFF71CFB14E001237B62032387F8233029
:100DD0007448FFF713FB0BE005237B62032387F8BE
:100DE000233005E007237B62062387F8233000BF0A
:100DF00097F82330062B06D097F8233018460121A8
:100E0000012200F05BF9FFF7F5FBFFF707FD7B69B7
:100E1000002B01D0FFF7D6FA634B7A6A5A67634812
:100E2000FFF76EFD03461846FFF7E8FAFFF7EAF909
:100E3000F860FFF7D5FA0346F8681946FFF7FAFBA2
:100E40007B69002B03D10020012100F0ABFBFFF7F1
:100E5000EBFCA2E0564BBB61BB69002B01D0BB6928
:100E600000E0544BBB61BB69002B01D0BB6900E0C3
:100E7000514BBB61FB78013B092B00F28B8001A237
:100E800052F823F0AD0E0000B30E0000C30E0000B8
:100E9000950F0000950F0000D30E0000950F000085
:100EA000950F0000950F0000EF0E00000023FB617E
:100EB00020E000200121012200F000F90223FB6163
:100EC00018E001200121012200F0F8F80123FB6164
:100ED00010E0FFF797F903461846FFF78FFA3748F7
:100EE00002210122FFF734FA0323FB6102E004230D
:100EF000FB6100BFBB69FA691A604EE0FB78072B03
:100F000002D0092B04D048E0274B00221A6703E0E7
:100F1000254B01221A6700BF3FE0FB78013B072BFE
:100F20003AD801A252F823F0490F0000990F0000AF
:100F3000990F00005F0F0000990F0000990F00004B
:100F40004F0F00006F0F00000023FB6112E0042030
:100F50000121012200F0B2F80123FB610AE0022026
:100F60000121012200F0AAF80223FB6102E0032321
:100F7000FB6100BF0C4B0C4AD2F85C2122F030011F
:100F8000FA6912010A43C3F85C2106E000BF04E0DD
:100F900000BF02E000BF00E000BF2837BD4680BDB3
:100FA000002D31010148E80100400E4000250A00F3
:100FB00080400E4088400E4084400E40B0400E40BD
:100FC00080B400AF034B1B681846BD465DF8047B38
:100FD000704700BF0C000020B0B584B000AF78604F
:100FE0001120FFF795FD02200021012200F066F894
:100FF0007B685B7883F00103DBB2002B0ED07B684B
:101000009B7883F00103DBB2002B07D07B68DB7891
:1010100083F00103DBB2002B00D000BF0023FB6094
:101020007B681B7C022B01D10123FB60214B214AF1
:10103000526A22F00101FA680A435A627B681B78FF
:101040001D4808211A46FFF783F91A4B7A689288DF
:10105000D1027A68527A0A43DA62164C154B1B6B3E
:1010600003F07F627B68DB88DB021A437B689B7A34
:101070001A437B681B7ADB0142EA03057B681B7A13
:101080001846FFF7F7FA03462B432363094B7A68A8
:10109000527B11037A68927B120111437A68D27BEA
:1010A00011437A68127B12040A435A631037BD4613
:1010B000B0BD00BF00400E4024400E4080B588B057
:1010C00000AF13460246FA710A46BA717B71FB798A
:1010D000042B00F2B88001A252F823F0391100006D
:1010E0002711000003110000F1100000151100008D
:1010F00001237B6102233B610123FB610023BB6170
:1011000025E004237B6108233B610323FB61022369
:10111000BB611CE010237B6120233B610523FB6145
:101120000423BB6113E040237B6180233B610723E1
:10113000FB610623BB610AE04FF480737B614FF4CF
:1011400000733B610923FB610823BB6100BFBB79CE
:10115000002B5BD00023FB73FB79022B11D1FFF72F
:10116000A5FA0346002B0CD1394BDB6B0123FB7333
:10117000384B5B6A03F00103002B02D00120FFF71C
:10118000A3FA344B7A691A6600BF3348B969FFF78E
:10119000F5F80346002BF8D07B79002B35D000BF43
:1011A0002D48F969FFF7EAF80346002BF8D0FB79E0
:1011B000022B2AD1FB7B002B27D0264B5B6A03F046
:1011C0000103002B05D002202021012200F04AF962
:1011D00003E00220002100F0FBF8022000F03EF8BE
:1011E000B860022000210122FFF768FF0220B968E1
:1011F00000F06EF8174B7A691A6600BF1648F96955
:10120000FFF7BCF80346002BF8D01DE0114B3A69FC
:101210001A6600BF0F4BD3F89020BB69012101FA79
:1012200003F31340002BF5D17B79002B0CD000BFCA
:10123000084BD3F89020FB69012101FA03F3134016
:10124000002BF5D100E000BF2037BD4680BD00BFB8
:1012500000300E4000400E4090400E4080B485B0FB
:1012600000AF0346FB71FB79013B032B23D801A29E
:1012700052F823F085120000A9120000911200001C
:101280009D120000114B1B6AC3F30803FB6015E0BD
:101290000E4B1B6903F07F03FB600FE00B4B9B6958
:1012A00003F07F03FB6009E0084BD3F89C30C3F3E5
:1012B0000A03FB6002E00023FB6000BFFB681846E6
:1012C0001437BD465DF8047B704700BF00400E40F8
:1012D00080B584B000AF03463960FB71FB79013BF8
:1012E000032B6AD801A252F823F000BFFD120000C0
:1012F0007F1300002B130000551300003B68C3F35D
:1013000008033B6000BF2F481A21FFF737F8034658
:10131000002BF8D12C4A2C4B1B6A23F4FF7323F0CB
:10132000010339680B43136248E03B6803F07F0315
:101330003B6000BF23481821FFF720F80346002B2D
:10134000F8D1214B204A126922F07F013A680A4302
:101350001A6133E03B6803F07F033B6000BF19482C
:101360001921FFF70BF80346002BF8D1164B164A4C
:10137000926922F07F013A680A439A611EE0124B9B
:10138000D3F89030104B104A526A22F0300242F0EB
:1013900010025A623B6803F4F063DB091846FFF75A
:1013A00069F9F860084A084B196B084B0B4039681B
:1013B0001943FB680B43136300E000BF1037BD46C1
:1013C00080BD00BF40410E4000400E4000F8FF0FBE
:1013D00080B584B000AF02460B46FA71BB71FFF7CF
:1013E00065F90346002B03D14FF44003FB6016E080
:1013F000BB79202B04D0302B0AD0002B04D00BE07B
:101400004FF40003FB600AE04FF44003FB6006E08A
:101410004FF44003FB6002E0104BFB6000BF00BFD5
:101420000F4BD3F89020FB681A40FB689A42F7D123
:10143000FB6803F48003002B0AD0094BD3F8A030DB
:1014400003F48063002B0CBF00230123DBB200E018
:10145000012318461037BD4680BD00BFFF33E107AA
:1014600000400E4080B582B000AF13460246FA71CC
:101470000A46BA717B71FB79022B00D016E0BB796A
:10148000002B07D00C4B4FF48062C3F8A8200A4B06
:10149000BA795A667B79002B07D0FA79BB79104666
:1014A0001946FFF795FF034601E000BF01231846E8
:1014B0000837BD4680BD00BF00400E4080B487B0F5
:1014C00000AFF860B9607A60FB6803F10473DA007A
:1014D000BB6813449B007B617B697A681A601C3788
:1014E000BD465DF8047B704780B485B000AF78607E
:1014F00039607B6803F10473DA003B6813449B0096
:10150000FB60FB681B6818461437BD465DF8047B1A
:10151000704700BF80B500AF00BF04481221FFF73D
:10152000E3FF0346002BF8D180BD00BF04300E401E
:1015300080B500AFFFF7EEFF034B5B6803F4403369
:101540001B0CDBB2184680BD00300E4080B483B067
:1015500000AF7860034B7A68DA620C37BD465DF8FD
:10156000047B704700300E4080B400AF034B5B6AD1
:101570001846BD465DF8047B704700BF00300E4042
:1015800080B483B000AF0346FB71FB79C3F1020363
:10159000102202FA03F318460C37BD465DF8047BAF
:1015A000704700BF80B584B000AF78600B46FB7019
:1015B000154BD3F8003103F4F8531B0A0133BB6019
:1015C0007B68002B07D1FEF749FE0346BA6802FB91
:1015D00003F3FB6001E07B68FB600C4B1B78002B86
:1015E00009D0FA680A4B9A4205D8FB7802201946BE
:1015F00000F010F804E0FB780020194600F00AF82B
:101600001037BD4680BD00BF00400E40A400002042
:10161000FF2C310190B587B000AF02460B46FA713E
:10162000BB711B4BD3F8003103F4F8531B0A013391
:101630007B61FEF713FE3861FFF77AFF0346FB7309
:10164000FA7BFB799A4200D11EE03B697A6902FB82
:1016500003F3BB60FB79022B03D138690221FEF74B
:10166000E9FF0C4CFB791846FFF78AFF034623611C
:10167000BB79002B01D0FFF74DFFFB79002B03D185
:1016800038690021FEF7D6FF1C37BD4690BD00BF6C
:1016900000400E4000300E4080B400AF01231846D9
:1016A000BD465DF8047B704780B582B000AF0C4B3F
:1016B0000B4AD26E42F08072DA660A480021FFF7C8
:1016C00013FF78607B68002B03D0042000F0ACFC93
:1016D00002E0002000F0A8FC0837BD4680BD00BF36
:1016E00000300E404C300E4080B48BB000AF012370
:1016F0007B627B6A1B053B62314BDB6C03F47063DE
:101700001B0AFB612F4B1B881A462E4B1B88283364
:101710005B08134403F12801FB695A1C13469B0024
:101720001344B1FBF3F3013BBB61BB697B6107234E
:101730003B613A697B699A4238BF1346BB61BB691A
:101740001B06BB611E4B1E4AD26C22F0EE61B869CB
:101750003A6A02430A43DA641B4B1B881BB2002B14
:1017600028DB194B1B88FB81FA89FB8928335B082E
:10177000134403F12802FB6901335900FB6901336B
:101780005B080B44B2FBF3F3BB60BB687B600723D1
:101790003B603A687B689A4238BF1346BB60BB68BF
:1017A0001B01BB60064B064A126D22F07001BA683D
:1017B0000A431A652C37BD465DF8047B704700BFAD
:1017C00000300E409C000020A000002080B483B0B8
:1017D00000AF78600B467B807B689AB2044B1A801E
:1017E000044B7A881A800C37BD465DF8047B70473D
:1017F0009C000020A000002080B483B000AF03460E
:10180000FB71FB79002B02D0012B04D007E0064BC3
:10181000064A9A6503E0044B054A9A6500BF0C37F7
:10182000BD465DF8047B704700300E40774020577E
:10183000372110B780B485B000AF13460246FA7165
:101840000A46BA717B712E4BD3F88031FB60BB79AD
:10185000032B1FD801A252F823F000BF6D1800001F
:1018600075180000811800008D180000FB68DBB2BD
:10187000FB6011E0FB6803F47F431B0AFB600BE095
:10188000FB6803F47F031B0CFB6005E0FB681B0E89
:10189000FB6001E000232CE07B79002B11D1FB6879
:1018A0001B03FB60FB6823F47043002B01D0002373
:1018B0001FE0144B134AD26E22F47041FA680A43B7
:1018C000DA667B79012B13D1FB681B03FB60FB6895
:1018D00023F47043002B01D000230AE0094B094A8E
:1018E000D2F8EC2022F47041FA680A43C3F8EC20E5
:1018F000012318461437BD465DF8047B704700BFCE
:10190000B081E00F00300E4080B489B000AFF860C5
:10191000B960FA71BB710023FB610023BB61BB7925
:101920001A02FB79002B01D0012300E000231343AE
:101930007B617B6940F2011293422BD0B3F5817F2A
:1019400007D2012B19D0012B4BD3B3F5807F55D093
:101950007BE040F20122934229D040F201229342DF
:1019600003D8B3F5007F56D06FE0B3F5407F5FD06A
:1019700040F20132934227D067E0394BD3F87431FB
:10198000FB61FB6903F47F431B0ABB61FB69DBB2AC
:10199000FB615AE0324BD3F87431FB61FB691B0EDB
:1019A000BB61FB6903F47F031B0CFB614DE02C4B17
:1019B000D3F87831FB61FB6903F47F431B0ABB61F9
:1019C000FB69DBB2FB6140E0254BD3F87831FB616A
:1019D000FB691B0EBB61FB6903F47F031B0CFB61FE
:1019E00033E01F4BD3F86C31FB61FB6903F47F4399
:1019F0001B0ABB61FB69DBB2FB6126E0184BD3F825
:101A00006C31FB61FB691B0EBB61FB6903F47F0357
:101A10001B0CFB6119E0124BD3F87031FB61FB69C1
:101A200003F47F431B0ABB61FB69DBB2FB610CE083
:101A30000B4BD3F87031FB61FB691B0EBB61FB697B
:101A400003F47F031B0CFB6100BFFB68FA691A609B
:101A5000BB68BA691A602437BD465DF8047B7047DD
:101A6000B081E00F80B584B000AF0346FB7100BFCA
:101A7000364B9B6F03F00103002BF9D1334B1B6CEA
:101A800003F00303FB60FB68002B04D030480D21FA
:101A90000122FFF713FDFB68DBB2FA799A4209D104
:101AA000FB79002B05D12A480D210022FFF706FD06
:101AB00048E047E0FB68032B02D0FB68002B20D1F5
:101AC000FB79022B02D0FB79012B1AD14FF40020B5
:101AD000FFF73CFD00BF1D4B9B6F03F00103002B84
:101AE000F9D11A4B194A126C22F0030242F001029A
:101AF0001A6400BFFFF738FD034603F40023002BF0
:101B0000F8D000BF114B9B6F03F00103002BF9D1FC
:101B10000E4B0E4A126C22F00301FA790A431A6442
:101B200000BF0A4B9B6F03F00103002BF9D1FB7937
:101B3000002B0CBF00230123DBB205480D211A4600
:101B4000FFF7BCFC1037BD4680BD00BF00300E4023
:101B500054300E4080B584B000AF7860484B02220C
:101B60009A63474B9B6B03F00F03022B01D00023BA
:101B700081E0FFF791FD7B685B78012B02D07B68E9
:101B80005B78022B7B68DB884A2B02D80023FB6042
:101B900015E07B68DB88B3F5FA7F03D24FF0805302
:101BA000FB600CE07B68DA8840F6C3139A4203D8E6
:101BB0004FF00053FB6002E04FF04053FB603049B0
:101BC0002F4BDB6C23F0405323F001037A6892899A
:101BD00012B2002A01DB012200E00022F868024371
:101BE0001343CB64264B264AD2F8EC2042F44072D1
:101BF000C3F8EC20FFF758FD7B681B891A467B6809
:101C00009B891BB210461946FFF7E0FD7B689A8856
:101C10001C4B1A807B689B88184600F099F97B68FA
:101C20009B7B1846FFF7E8FD7B685B88184601211F
:101C3000012200F02BF8034683F00103DBB2002BF6
:101C400001D0002317E00E4B0D4AD26B42F48062A4
:101C5000DA637B685B781846FFF704FF7B689B7A42
:101C6000202B01D1012300E00023074805211A465B
:101C7000FFF724FC012318461037BD4680BD00BF86
:101C800000300E409E0000203C300E4080B594B0E5
:101C900000AF786013460A46FA70BB700023FB64FD
:101CA00000237B6407F1240300221A60043300221E
:101CB0001A60043300221A60043307F1180300226B
:101CC0001A60043300221A60043300221A600433BD
:101CD00007F10C0300221A60043300221A60043357
:101CE00000221A60043300233B810023BB727B680F
:101CF000B3F5E16F06D37A6840F6B8339A4201D85B
:101D0000012300E0002387F8433097F8433003F0C5
:101D1000010387F8433097F8433083F00103DBB2C7
:101D2000002B01D000230BE17B68B3F5E16F94BF7A
:101D30000023012387F8423097F84230002B0AD065
:101D40004FF4E163FB6440F6B8337B647A6CFB6C60
:101D5000D31ABB6409E04FF49663FB644FF4E1636C
:101D60007B647A6CFB6CD31ABB6497F84230002B0F
:101D70000CD0754BD3F868313B623B6A1B0E7B611C
:101D80003B6A03F47F031B0C3B620BE06E4BD3F802
:101D900068313B623B6A03F47F431B0A7B613B6A09
:101DA000DBB23B62694BDB6C03F040531B0FDBB2D1
:101DB0003B723B7A07F1180007F10C0197F84220BB
:101DC000FFF7A2FD614BD3F8EC3003F440731B0A1C
:101DD000DBB27B727B7A07F11802101D07F10C024F
:101DE000111D97F84220FFF78FFD7A68FB6CD31A1C
:101DF00079693A6A8A1A02FB03F2BB6CB2FBF3F30D
:101E0000FB62FA6A3B6A1344FB627A68FB6CD31A82
:101E1000F968BA698A1A02FB03F2BB6CB2FBF3F3EE
:101E20007B627A6ABB6913447B627A68FB6CD31A63
:101E30003969FA698A1A02FB03F2BB6CB2FBF3F34D
:101E4000BB62BA6AFB691344BB62FA6A7B699A4255
:101E500013D8FA6A3B6A9A420FD3BA6A3B699A422C
:101E60000BD8BA6AFB699A4207D37A6AFB689A422E
:101E700003D87A6ABB699A4201D2002360E0BB783A
:101E8000002B12D0314A314BDB6D23F4FE4323F09B
:101E90000203F96A0902194397F84230002B01D076
:101EA000022300E000230B43D365FB78002B46D0D0
:101EB0003B7A97F84220104619460022FFF7BAFCF9
:101EC000034683F00103DBB2002B01D0002337E08F
:101ED0007B7A97F84220104619460122FFF7AAFCA8
:101EE000034683F00103DBB2002B01D0002327E07F
:101EF0007B6AFB63BB6ABB63BA6BFB6B9A4228BF0E
:101F000013467B627B6A7B63E7233B633A6B7B6BA5
:101F10009A4238BF13467B620C4A0C4B5B6E23F42B
:101F2000FF7323F00103796A4900194397F842309F
:101F3000002B01D0012300E000230B435366012353
:101F400018465037BD4680BDB081E00F00300E40CE
:101F500080B584B000AF78600023FB60314B1B6F0D
:101F600003F00703BB602F4BDB6C03F00103002B76
:101F700015D0BB68012B12D97B68132B02D8042320
:101F8000FB600BE07B68132B05D97B68272B02D8FD
:101F90000823FB6002E01023FB602DE02CE0214BC6
:101FA000DB6C03F00103002B15D1BB68012B12D8A9
:101FB0007B68092B02D80423FB600BE07B68092BAC
:101FC00005D97B68132B02D80823FB6002E010239D
:101FD000FB6011E010E0134BDB6C03F00103002BFE
:101FE0000AD0BB68012B07D87B68272B02D80823AF
:101FF000FB6001E01023FB60FB68013BFB60FB68BA
:102000001A02FB681B031343FB60064B054AD26CA4
:1020100022F47F41FA680A43DA64FFF765FB103760
:10202000BD4680BD00300E4080B584B000AF034691
:10203000FB710F480021FFF757FAF860FB68002B8F
:1020400002D1FB79012B02D9FB68002B00D000BF25
:10205000084B084A126F22F00701FA790A431A67FF
:10206000054B1B881846FFF773FF1037BD4680BD30
:102070004C300E4000300E409E00002080B485B0F1
:1020800000AF786039607B6803F1C063FB60FB6878
:102090003A681A601437BD465DF8047B704700BF8C
:1020A00080B485B000AF786039607B6803F18063ED
:1020B000FB60FB683A681A601437BD465DF8047B24
:1020C000704700BF80B584B000AFF860B9607A6037
:1020D000F868B968FFF7E4FFF8687968FFF7CEFFA2
:1020E0001037BD4680BD00BF80B582B000AF03464B
:1020F0003960FB71FB79002B1CD0FB79012B19D0C7
:10210000FB79022B16D0FB79032B13D0FB79042B20
:1021100010D0FB79052B0DD0FB79062B0AD0FB796B
:10212000072B07D0FB79082B04D0FB79092B01D0B2
:10213000FB790A2BFA7913465B0013441B010C331D
:1021400003F1804303F520433A68012101FA02F2CA
:1021500018461146FFF7A4FF0837BD4680BD00BFF3
:1021600080B582B000AF03463960FB71FB79002B6C
:102170001CD0FB79012B19D0FB79022B16D0FB79EF
:10218000032B13D0FB79042B10D0FB79052B0DD03A
:10219000FB79062B0AD0FB79072B07D0FB79082B9C
:1021A00004D0FB79092B01D0FB790A2BFA7913466D
:1021B0005B0013441B010C3303F1804303F5204300
:1021C0003A68012101FA02F218461146FFF756FF5C
:1021D0000837BD4680BD00BF80B582B000AF034662
:1021E0003960FB71FB79002B1DD0FB79012B1AD0D4
:1021F000FB79022B17D0FB79032B14D0FB79042B2E
:1022000017D0FB79052B0ED0FB79062B11D0FB796B
:10221000072B0ED0FB79082B05D0FB79092B02D0B8
:10222000FB790A2B05D13B6823F00113002B00D169
:1022300000BFFA7913465B0013441B0103F180438E
:1022400003F5204318464FF001113A68FFF73AFFB3
:102250000837BD4680BD00BF90B585B000AFB960FE
:102260007B600346FB731346BB73FB7B002B1CD0C8
:10227000FB7B012B19D0FB7B022B16D0FB7B032BA6
:1022800013D0FB7B042B10D0FB7B052B0DD0FB7BED
:10229000062B0AD0FB7B072B07D0FB7B082B04D037
:1022A000FB7B092B01D0FB7B0A2BBB7B002B0DD0CA
:1022B0007B68002B05D0FB7B1846B968FFF750FF01
:1022C00004E0FB7B1846B968FFF70EFFBB68072BDD
:1022D0001DD82B48FA7B2A4CF97B0B465B000B443C
:1022E0001B0123445968BB689B000F2404FA03F3C5
:1022F000DB431940BC7BBB689B0004FA03F3194322
:1023000013465B0013441B010344596024E01C483E
:10231000FA7B1B4CF97B0B465B000B441B012344EF
:1023200008331968BB6803F18043083B9B000F2406
:1023300004FA03F3DB431940BC7BBB6803F1804321
:10234000083B9B0004FA03F3194313465B00134454
:102350001B01034408331960BB7B002B0DD17B6844
:10236000002B05D0FB7B1846B968FFF7F9FE04E0A7
:10237000FB7B1846B968FFF7B7FE1437BD4690BD22
:1023800000A0004080B500AF13480421FEF7A0FC78
:1023900011480121FEF74EFA012000210022FEF72C
:1023A0008DFE052000210022FEF788FE002001217D
:1023B0000122FEF783FE09480221FEF789FC074847
:1023C0000121FEF737FA06480121FEF733FA0548E6
:1023D0000121FEF72FFA80BD4041050002001E00DA
:1023E00000250A0000350A0080B500AF05204FF037
:1023F0000111FFF7F1FE0520042104220023FFF75D
:102400002BFF05204FF00111FFF7E6FE0520052107
:1024100004220023FFF720FF80BD00BF80B400AF7F
:10242000044BDB6C1B0EDBB21846BD465DF8047B2B
:10243000704700BFB081E00F80B485B000AF786016
:1024400039607B6803F1C063FB60FB683A681A601F
:102450001437BD465DF8047B704700BF80B485B07B
:1024600000AF786039607B6803F18063FB60FB68D4
:102470003A681A601437BD465DF8047B704700BFA8
:1024800080B582B000AF03463960FB71FB79002B49
:102490001CD0FB79012B19D0FB79022B16D0FB79CC
:1024A000032B13D0FB79042B10D0FB79052B0DD017
:1024B000FB79062B0AD0FB79072B07D0FB79082B79
:1024C00004D0FB79092B01D0FB790A2BFA7913464A
:1024D0005B0013441B010C3303F1804303F52043DD
:1024E0003A68012101FA02F218461146FFF7B6FFD9
:1024F0000837BD4680BD00BF80B582B000AF03463F
:102500003960FB71FB79002B1CD0FB79012B19D0B2
:10251000FB79022B16D0FB79032B13D0FB79042B0C
:1025200010D0FB79052B0DD0FB79062B0AD0FB7957
:10253000072B07D0FB79082B04D0FB79092B01D09E
:10254000FB790A2BFA7913465B0013441B010C3309
:1025500003F1804303F520433A68012101FA02F2B6
:1025600018461146FFF768FF0837BD4680BD00BF1B
:1025700080B582B000AF154B01225A64FFF74EFFC1
:102580000346FB71FB79002B0CD1114B4AF6E85244
:102590001A60104B0F4A126842F004021A600C4B8A
:1025A00000221A60FB79012B05D80B4B0A4A1268EE
:1025B00042F400521A60094B084A126A22F444128B
:1025C00042F488121A620837BD4680BD00000E40F2
:1025D00090310E4098310E4064310E4000400E4064
:1025E000B0B58CB000AF2A4B07F1140418685968D5
:1025F0009A68DB680FC4274B3C461D46286869680B
:10260000AA68EB680FC42B8A2380FFF7B1FF07F19C
:1026100014031846FFF79EFA3B461846FEF7DCFC0B
:1026200011200421FEF754FB032000210022FEF7B5
:1026300045FDFFF7A7FEFFF7D7FE0023FB6202E090
:10264000FB6A0133FB62FA6A134B9A42F8DD0520FC
:102650000421FFF715FF0023BB6202E0BB6A0133D0
:10266000BB62BA6A0C4B9A42F8DD05200521FFF7E0
:1026700007FF00237B6202E07B6A01337B627A6A98
:10268000064B9A42F8DD05200421FFF735FFD4E719
:1026900068270000782700005FE316009F252600CA
:1026A00008B5074B044613B10021AFF30080054B7A
:1026B0001868836A03B19847204600F033F800BFDA
:1026C000000000009027000070B50E4B0E4DED1A73
:1026D000AD1000241E46AC4204D056F8242090478A
:1026E0000134F8E700F020F8084D094BED1AAD1061
:1026F00000241E46AC4204D056F8242090470134F2
:10270000F8E770BD740000207400002078000020FD
:102710007400002002440346934202D003F8011BD8
:10272000FAE77047FEE700BFF8B500BFF8BC08BC89
:102730009E467047F8B500BFF8BC08BC9E4670477F
:1027400040787D0100000000005A62020001000094
:10275000C0CF6A0002000000809FD5000201000087
:10276000002D3101020200000002080705000A00E6
:10277000C8000000FFFF010001000000A000680188
:102780000A200706020A04070000000043000000B8
:0827900014000020000000000D
:08279800C8D9FF7F0100000019
:1027A000005A620200800000C0EA2101C0EA210153
:1027B000C0EA21010000000000000000000000004D
:1027C0000000000000000000000000000000000009
:1027D000000000008C270000000000000000000046
:1027E00000000000000000000000000000000000E9
:1027F00000000000000000000000000000000000D9
:1028000000000000000000000000000000000000C8
:1028100000000000310100000D0100000000000078
:04000003000001D523
:00000001FF
